{"abi":[{"type":"constructor","inputs":[{"name":"_token","type":"address","internalType":"contract QPGStableCoin"},{"name":"_xauUsdFeed","type":"address","internalType":"address"}],"stateMutability":"nonpayable"},{"type":"function","name":"BANK","inputs":[],"outputs":[{"name":"","type":"bytes32","internalType":"bytes32"}],"stateMutability":"view"},{"type":"function","name":"BURNER","inputs":[],"outputs":[{"name":"","type":"bytes32","internalType":"bytes32"}],"stateMutability":"view"},{"type":"function","name":"CUSTODIAN","inputs":[],"outputs":[{"name":"","type":"bytes32","internalType":"bytes32"}],"stateMutability":"view"},{"type":"function","name":"DEFAULT_ADMIN_ROLE","inputs":[],"outputs":[{"name":"","type":"bytes32","internalType":"bytes32"}],"stateMutability":"view"},{"type":"function","name":"FEE_CONTROLLER_ROLE","inputs":[],"outputs":[{"name":"","type":"bytes32","internalType":"bytes32"}],"stateMutability":"view"},{"type":"function","name":"MINTER_ROLE","inputs":[],"outputs":[{"name":"","type":"bytes32","internalType":"bytes32"}],"stateMutability":"view"},{"type":"function","name":"burnProcessed","inputs":[{"name":"","type":"bytes32","internalType":"bytes32"}],"outputs":[{"name":"","type":"bool","internalType":"bool"}],"stateMutability":"view"},{"type":"function","name":"eip712Domain","inputs":[],"outputs":[{"name":"fields","type":"bytes1","internalType":"bytes1"},{"name":"name","type":"string","internalType":"string"},{"name":"version","type":"string","internalType":"string"},{"name":"chainId","type":"uint256","internalType":"uint256"},{"name":"verifyingContract","type":"address","internalType":"address"},{"name":"salt","type":"bytes32","internalType":"bytes32"},{"name":"extensions","type":"uint256[]","internalType":"uint256[]"}],"stateMutability":"view"},{"type":"function","name":"getAmountGoldToMint","inputs":[{"name":"amountinUsd","type":"uint256","internalType":"uint256"}],"outputs":[{"name":"","type":"uint256","internalType":"uint256"}],"stateMutability":"view"},{"type":"function","name":"getCurrentQPGLimitForInstitutions","inputs":[],"outputs":[{"name":"","type":"uint256","internalType":"uint256"}],"stateMutability":"view"},{"type":"function","name":"getCurrentQPGLimitForRetailUsers","inputs":[],"outputs":[{"name":"","type":"uint256","internalType":"uint256"}],"stateMutability":"view"},{"type":"function","name":"getGoldPrice","inputs":[],"outputs":[{"name":"","type":"uint256","internalType":"uint256"}],"stateMutability":"view"},{"type":"function","name":"getMintingFeeForRetailersInPercentage","inputs":[],"outputs":[{"name":"","type":"uint256","internalType":"uint256"}],"stateMutability":"view"},{"type":"function","name":"getRoleAdmin","inputs":[{"name":"role","type":"bytes32","internalType":"bytes32"}],"outputs":[{"name":"","type":"bytes32","internalType":"bytes32"}],"stateMutability":"view"},{"type":"function","name":"getSendMoneyFeeForRetailersInPercentage","inputs":[],"outputs":[{"name":"","type":"uint256","internalType":"uint256"}],"stateMutability":"view"},{"type":"function","name":"getUsdValueOfUsersGold","inputs":[{"name":"user","type":"address","internalType":"address"}],"outputs":[{"name":"","type":"uint256","internalType":"uint256"}],"stateMutability":"view"},{"type":"function","name":"grantRole","inputs":[{"name":"role","type":"bytes32","internalType":"bytes32"},{"name":"account","type":"address","internalType":"address"}],"outputs":[],"stateMutability":"nonpayable"},{"type":"function","name":"hasRole","inputs":[{"name":"role","type":"bytes32","internalType":"bytes32"},{"name":"account","type":"address","internalType":"address"}],"outputs":[{"name":"","type":"bool","internalType":"bool"}],"stateMutability":"view"},{"type":"function","name":"mintQPGforInstitutions","inputs":[{"name":"to","type":"address","internalType":"address"},{"name":"amountQPGtoMint","type":"uint256","internalType":"uint256"}],"outputs":[],"stateMutability":"nonpayable"},{"type":"function","name":"mintWithPermit","inputs":[{"name":"requestId","type":"bytes32","internalType":"bytes32"},{"name":"amountInWei","type":"uint256","internalType":"uint256"},{"name":"signature","type":"bytes","internalType":"bytes"}],"outputs":[],"stateMutability":"nonpayable"},{"type":"function","name":"owner","inputs":[],"outputs":[{"name":"","type":"address","internalType":"address"}],"stateMutability":"view"},{"type":"function","name":"pause","inputs":[],"outputs":[],"stateMutability":"nonpayable"},{"type":"function","name":"paused","inputs":[],"outputs":[{"name":"","type":"bool","internalType":"bool"}],"stateMutability":"view"},{"type":"function","name":"processed","inputs":[{"name":"","type":"bytes32","internalType":"bytes32"}],"outputs":[{"name":"","type":"bool","internalType":"bool"}],"stateMutability":"view"},{"type":"function","name":"qpgBalance","inputs":[{"name":"user","type":"address","internalType":"address"}],"outputs":[{"name":"amountQPG","type":"uint256","internalType":"uint256"}],"stateMutability":"view"},{"type":"function","name":"redeemCollateralAndBurnQPGForInstitutions","inputs":[{"name":"user","type":"address","internalType":"address"},{"name":"amount","type":"uint256","internalType":"uint256"}],"outputs":[],"stateMutability":"nonpayable"},{"type":"function","name":"redeemCollateralAndBurnQPGForRetailers","inputs":[{"name":"requestId","type":"bytes32","internalType":"bytes32"},{"name":"amount","type":"uint256","internalType":"uint256"},{"name":"signature","type":"bytes","internalType":"bytes"}],"outputs":[],"stateMutability":"nonpayable"},{"type":"function","name":"renounceOwnership","inputs":[],"outputs":[],"stateMutability":"nonpayable"},{"type":"function","name":"renounceRole","inputs":[{"name":"role","type":"bytes32","internalType":"bytes32"},{"name":"callerConfirmation","type":"address","internalType":"address"}],"outputs":[],"stateMutability":"nonpayable"},{"type":"function","name":"revokeRole","inputs":[{"name":"role","type":"bytes32","internalType":"bytes32"},{"name":"account","type":"address","internalType":"address"}],"outputs":[],"stateMutability":"nonpayable"},{"type":"function","name":"setMintingFeeForInstitution","inputs":[{"name":"_feePercentage","type":"uint256","internalType":"uint256"}],"outputs":[],"stateMutability":"nonpayable"},{"type":"function","name":"setMintingFeeForRetailers","inputs":[{"name":"_feePercentage","type":"uint256","internalType":"uint256"}],"outputs":[],"stateMutability":"nonpayable"},{"type":"function","name":"setMintingLimitForInstitutions","inputs":[{"name":"amountInWei","type":"uint256","internalType":"uint256"}],"outputs":[],"stateMutability":"nonpayable"},{"type":"function","name":"setMintingLimitForRetailers","inputs":[{"name":"amountInWei","type":"uint256","internalType":"uint256"}],"outputs":[],"stateMutability":"nonpayable"},{"type":"function","name":"setSendMoneyFeeForRetailers","inputs":[{"name":"_feePercentage","type":"uint256","internalType":"uint256"}],"outputs":[],"stateMutability":"nonpayable"},{"type":"function","name":"supportsInterface","inputs":[{"name":"interfaceId","type":"bytes4","internalType":"bytes4"}],"outputs":[{"name":"","type":"bool","internalType":"bool"}],"stateMutability":"view"},{"type":"function","name":"transferForRetailersWithPermit","inputs":[{"name":"requestId","type":"bytes32","internalType":"bytes32"},{"name":"to","type":"address","internalType":"address"},{"name":"amountInWei","type":"uint256","internalType":"uint256"},{"name":"deadline","type":"uint256","internalType":"uint256"},{"name":"v","type":"uint8","internalType":"uint8"},{"name":"r","type":"bytes32","internalType":"bytes32"},{"name":"s","type":"bytes32","internalType":"bytes32"},{"name":"signature","type":"bytes","internalType":"bytes"}],"outputs":[],"stateMutability":"nonpayable"},{"type":"function","name":"transferOwnership","inputs":[{"name":"newOwner","type":"address","internalType":"address"}],"outputs":[],"stateMutability":"nonpayable"},{"type":"function","name":"transferProcessed","inputs":[{"name":"","type":"bytes32","internalType":"bytes32"}],"outputs":[{"name":"","type":"bool","internalType":"bool"}],"stateMutability":"view"},{"type":"function","name":"unpause","inputs":[],"outputs":[],"stateMutability":"nonpayable"},{"type":"function","name":"xauUsd","inputs":[],"outputs":[{"name":"","type":"address","internalType":"contract AggregatorV3Interface"}],"stateMutability":"view"},{"type":"event","name":"CollateralRedeemed","inputs":[{"name":"user","type":"address","indexed":true,"internalType":"address"},{"name":"amount","type":"uint256","indexed":false,"internalType":"uint256"}],"anonymous":false},{"type":"event","name":"EIP712DomainChanged","inputs":[],"anonymous":false},{"type":"event","name":"FeeCollected","inputs":[{"name":"user","type":"address","indexed":true,"internalType":"address"},{"name":"amount","type":"uint256","indexed":false,"internalType":"uint256"},{"name":"feeType","type":"string","indexed":false,"internalType":"string"}],"anonymous":false},{"type":"event","name":"OwnershipTransferred","inputs":[{"name":"previousOwner","type":"address","indexed":true,"internalType":"address"},{"name":"newOwner","type":"address","indexed":true,"internalType":"address"}],"anonymous":false},{"type":"event","name":"Paused","inputs":[{"name":"account","type":"address","indexed":false,"internalType":"address"}],"anonymous":false},{"type":"event","name":"RetailTransfer","inputs":[{"name":"from","type":"address","indexed":true,"internalType":"address"},{"name":"to","type":"address","indexed":true,"internalType":"address"},{"name":"amount","type":"uint256","indexed":false,"internalType":"uint256"}],"anonymous":false},{"type":"event","name":"RoleAdminChanged","inputs":[{"name":"role","type":"bytes32","indexed":true,"internalType":"bytes32"},{"name":"previousAdminRole","type":"bytes32","indexed":true,"internalType":"bytes32"},{"name":"newAdminRole","type":"bytes32","indexed":true,"internalType":"bytes32"}],"anonymous":false},{"type":"event","name":"RoleGranted","inputs":[{"name":"role","type":"bytes32","indexed":true,"internalType":"bytes32"},{"name":"account","type":"address","indexed":true,"internalType":"address"},{"name":"sender","type":"address","indexed":true,"internalType":"address"}],"anonymous":false},{"type":"event","name":"RoleRevoked","inputs":[{"name":"role","type":"bytes32","indexed":true,"internalType":"bytes32"},{"name":"account","type":"address","indexed":true,"internalType":"address"},{"name":"sender","type":"address","indexed":true,"internalType":"address"}],"anonymous":false},{"type":"event","name":"Unpaused","inputs":[{"name":"account","type":"address","indexed":false,"internalType":"address"}],"anonymous":false},{"type":"event","name":"collateralDepositedAndQPGMinted","inputs":[{"name":"user","type":"address","indexed":true,"internalType":"address"},{"name":"amount","type":"uint256","indexed":true,"internalType":"uint256"}],"anonymous":false},{"type":"error","name":"AccessControlBadConfirmation","inputs":[]},{"type":"error","name":"AccessControlUnauthorizedAccount","inputs":[{"name":"account","type":"address","internalType":"address"},{"name":"neededRole","type":"bytes32","internalType":"bytes32"}]},{"type":"error","name":"ECDSAInvalidSignature","inputs":[]},{"type":"error","name":"ECDSAInvalidSignatureLength","inputs":[{"name":"length","type":"uint256","internalType":"uint256"}]},{"type":"error","name":"ECDSAInvalidSignatureS","inputs":[{"name":"s","type":"bytes32","internalType":"bytes32"}]},{"type":"error","name":"EnforcedPause","inputs":[]},{"type":"error","name":"ExpectedPause","inputs":[]},{"type":"error","name":"InvalidShortString","inputs":[]},{"type":"error","name":"OwnableInvalidOwner","inputs":[{"name":"owner","type":"address","internalType":"address"}]},{"type":"error","name":"OwnableUnauthorizedAccount","inputs":[{"name":"account","type":"address","internalType":"address"}]},{"type":"error","name":"QPGEngine__InstitutionalMinPurchaseLimitNotMet","inputs":[]},{"type":"error","name":"QPGEngine__InstitutionalUserMintingMaxLimitExceeded","inputs":[]},{"type":"error","name":"QPGEngine__InvalidMintFeePercentageInput","inputs":[]},{"type":"error","name":"QPGEngine__NotEnoughBalance","inputs":[]},{"type":"error","name":"QPGEngine__RetailUserMaxLimitExceeded","inputs":[]},{"type":"error","name":"QPGEngine__RetailUserMintingMaxLimitExceeded","inputs":[]},{"type":"error","name":"QPGEngine__TransferFeesFailed","inputs":[]},{"type":"error","name":"QPGEngine__TransferToUserFailed","inputs":[]},{"type":"error","name":"QPGEngine__ZeroAddress","inputs":[]},{"type":"error","name":"ReentrancyGuardReentrantCall","inputs":[]},{"type":"error","name":"StringTooLong","inputs":[{"name":"str","type":"string","internalType":"string"}]}],"bytecode":{"object":"0x6101a0604052348015610010575f5ffd5b506040516151ea3803806151ea83398181016040528101906100329190610741565b336040518060400160405280600981526020017f515047456e67696e6500000000000000000000000000000000000000000000008152506040518060400160405280600181526020017f310000000000000000000000000000000000000000000000000000000000000081525060015f819055506100ba60028361037060201b90919060201c565b61012081815250506100d660038261037060201b90919060201c565b6101408181525050818051906020012060e08181525050808051906020012061010081815250504660a081815250506101136103bd60201b60201c565b608081815250503073ffffffffffffffffffffffffffffffffffffffff1660c08173ffffffffffffffffffffffffffffffffffffffff168152505050505f73ffffffffffffffffffffffffffffffffffffffff168173ffffffffffffffffffffffffffffffffffffffff16036101c0575f6040517f1e4fbdf70000000000000000000000000000000000000000000000000000000081526004016101b7919061078e565b60405180910390fd5b6101cf8161041760201b60201c565b505f600460146101000a81548160ff0219169083151502179055508173ffffffffffffffffffffffffffffffffffffffff166101808173ffffffffffffffffffffffffffffffffffffffff16815250508073ffffffffffffffffffffffffffffffffffffffff166101608173ffffffffffffffffffffffffffffffffffffffff168152505073f39fd6e51aad88f6f4ce6ab8827279cfffb9226660115f6101000a81548173ffffffffffffffffffffffffffffffffffffffff021916908373ffffffffffffffffffffffffffffffffffffffff1602179055506103e8600d819055506103e8600e819055506103e8600f819055506102d55f5f1b336104da60201b60201c565b506103067f9f2df0fed2c77648de5860a4cc508cd0818c85b8b8a1ab4ceeef8d981c8956a6336104da60201b60201c565b506103377f9667e80708b6eeeb0053fa0cca44e028ff548e2a9f029edfeac87c118b08b7c8336104da60201b60201c565b506103687fd1af0f7454d50365c8d6fae2b2ef4533958eff44a75290fb04899bbd537cbd92336104da60201b60201c565b505050610c44565b5f6020835110156103915761038a836105cf60201b60201c565b90506103b7565b826103a18361063460201b60201c565b5f0190816103af91906109e4565b5060ff5f1b90505b92915050565b5f7f8b73c3c69bb8fe3d512ecc4cf759cc79239f7b179b0ffacaa9a75d522b39400f60e0516101005146306040516020016103fc959493929190610ada565b60405160208183030381529060405280519060200120905090565b5f60045f9054906101000a900473ffffffffffffffffffffffffffffffffffffffff1690508160045f6101000a81548173ffffffffffffffffffffffffffffffffffffffff021916908373ffffffffffffffffffffffffffffffffffffffff1602179055508173ffffffffffffffffffffffffffffffffffffffff168173ffffffffffffffffffffffffffffffffffffffff167f8be0079c531659141344cd1fd0a4f28419497f9722a3daafe3b4186f6b6457e060405160405180910390a35050565b5f6104eb838361063d60201b60201c565b6105c5576001805f8581526020019081526020015f205f015f8473ffffffffffffffffffffffffffffffffffffffff1673ffffffffffffffffffffffffffffffffffffffff1681526020019081526020015f205f6101000a81548160ff0219169083151502179055506105626106a160201b60201c565b73ffffffffffffffffffffffffffffffffffffffff168273ffffffffffffffffffffffffffffffffffffffff16847f2f8788117e7eff1d82e926ec794901d17c78024a50270940304540a733656f0d60405160405180910390a4600190506105c9565b5f90505b92915050565b5f5f829050601f8151111561061b57826040517f305a27a90000000000000000000000000000000000000000000000000000000081526004016106129190610b91565b60405180910390fd5b80518161062790610bde565b5f1c175f1b915050919050565b5f819050919050565b5f60015f8481526020019081526020015f205f015f8373ffffffffffffffffffffffffffffffffffffffff1673ffffffffffffffffffffffffffffffffffffffff1681526020019081526020015f205f9054906101000a900460ff16905092915050565b5f33905090565b5f5ffd5b5f73ffffffffffffffffffffffffffffffffffffffff82169050919050565b5f6106d5826106ac565b9050919050565b5f6106e6826106cb565b9050919050565b6106f6816106dc565b8114610700575f5ffd5b50565b5f81519050610711816106ed565b92915050565b610720816106cb565b811461072a575f5ffd5b50565b5f8151905061073b81610717565b92915050565b5f5f60408385031215610757576107566106a8565b5b5f61076485828601610703565b92505060206107758582860161072d565b9150509250929050565b610788816106cb565b82525050565b5f6020820190506107a15f83018461077f565b92915050565b5f81519050919050565b7f4e487b71000000000000000000000000000000000000000000000000000000005f52604160045260245ffd5b7f4e487b71000000000000000000000000000000000000000000000000000000005f52602260045260245ffd5b5f600282049050600182168061082257607f821691505b602082108103610835576108346107de565b5b50919050565b5f819050815f5260205f209050919050565b5f6020601f8301049050919050565b5f82821b905092915050565b5f600883026108977fffffffffffffffffffffffffffffffffffffffffffffffffffffffffffffffff8261085c565b6108a1868361085c565b95508019841693508086168417925050509392505050565b5f819050919050565b5f819050919050565b5f6108e56108e06108db846108b9565b6108c2565b6108b9565b9050919050565b5f819050919050565b6108fe836108cb565b61091261090a826108ec565b848454610868565b825550505050565b5f5f905090565b61092961091a565b6109348184846108f5565b505050565b5b818110156109575761094c5f82610921565b60018101905061093a565b5050565b601f82111561099c5761096d8161083b565b6109768461084d565b81016020851015610985578190505b6109996109918561084d565b830182610939565b50505b505050565b5f82821c905092915050565b5f6109bc5f19846008026109a1565b1980831691505092915050565b5f6109d483836109ad565b9150826002028217905092915050565b6109ed826107a7565b67ffffffffffffffff811115610a0657610a056107b1565b5b610a10825461080b565b610a1b82828561095b565b5f60209050601f831160018114610a4c575f8415610a3a578287015190505b610a4485826109c9565b865550610aab565b601f198416610a5a8661083b565b5f5b82811015610a8157848901518255600182019150602085019450602081019050610a5c565b86831015610a9e5784890151610a9a601f8916826109ad565b8355505b6001600288020188555050505b505050505050565b5f819050919050565b610ac581610ab3565b82525050565b610ad4816108b9565b82525050565b5f60a082019050610aed5f830188610abc565b610afa6020830187610abc565b610b076040830186610abc565b610b146060830185610acb565b610b21608083018461077f565b9695505050505050565b5f82825260208201905092915050565b8281835e5f83830152505050565b5f601f19601f8301169050919050565b5f610b63826107a7565b610b6d8185610b2b565b9350610b7d818560208601610b3b565b610b8681610b49565b840191505092915050565b5f6020820190508181035f830152610ba98184610b59565b905092915050565b5f81519050919050565b5f819050602082019050919050565b5f610bd58251610ab3565b80915050919050565b5f610be882610bb1565b82610bf284610bbb565b9050610bfd81610bca565b92506020821015610c3d57610c387fffffffffffffffffffffffffffffffffffffffffffffffffffffffffffffffff8360200360080261085c565b831692505b5050919050565b60805160a05160c05160e05161010051610120516101405161016051610180516144ed610cfd5f395f8181610aa501528181610dfa01528181611121015281816114fb015281816115da01528181611b6d01528181611c0901528181611d1901528181611ec801528181611fa70152818161273f015261281b01525f818161186801526129b201525f61251001525f6124d501525f61304d01525f61302c01525f612cc201525f612d1801525f612d4101526144ed5ff3fe608060405234801561000f575f5ffd5b5060043610610251575f3560e01c8063715018a611610144578063c1f0808a116100c1578063e48b8f0411610085578063e48b8f04146106b5578063e87acdb5146106d1578063e925ac6c146106ed578063ec1824401461070b578063f2fde38b1461073b578063f621929d1461075757610251565b8063c1f0808a146105fd578063c26f37551461062d578063d53913931461065d578063d547741f1461067b578063da6bae101461069757610251565b806391d148541161010857806391d148541461055b578063a0b7a0f31461058b578063a217fddf146105a7578063b03c24d5146105c5578063b302d069146105e157610251565b8063715018a6146104e957806375e57eb8146104f35780638456cb591461050f57806384b0196e146105195780638da5cb5b1461053d57610251565b80632f2ff15d116101d257806336568abe1161019657806336568abe146104695780633f4ba83a146104855780635c975abb1461048f5780636314a649146104ad5780636944ddb4146104cb57610251565b80632f2ff15d146103b15780633015b28b146103cd578063356a7c32146103fd578063356c598b1461042d57806335de614f1461044b57610251565b806312f48b791161021957806312f48b79146102fb578063187a30fb146103175780631ae8663614610333578063248a9ca3146103635780632b9db81f1461039357610251565b806301ffc9a7146102555780630216921c146102855780630621c10c146102a357806308f49122146102bf578063118c4f13146102dd575b5f5ffd5b61026f600480360381019061026a919061323a565b610773565b60405161027c919061327f565b60405180910390f35b61028d6107ec565b60405161029a91906132b0565b60405180910390f35b6102bd60048036038101906102b891906132f3565b6107f5565b005b6102c7610866565b6040516102d491906132b0565b60405180910390f35b6102e561086f565b6040516102f29190613336565b60405180910390f35b610315600480360381019061031091906133a9565b610893565b005b610331600480360381019061032c91906132f3565b6109af565b005b61034d600480360381019061034891906133e7565b6109e7565b60405161035a91906132b0565b60405180910390f35b61037d6004803603810190610378919061343c565b610a2d565b60405161038a9190613336565b60405180910390f35b61039b610a4a565b6040516103a89190613336565b60405180910390f35b6103cb60048036038101906103c69190613467565b610a6e565b005b6103e760048036038101906103e291906132f3565b610a90565b6040516103f491906132b0565b60405180910390f35b610417600480360381019061041291906133e7565b610aa1565b60405161042491906132b0565b60405180910390f35b610435610b46565b60405161044291906132b0565b60405180910390f35b610453610b4f565b6040516104609190613336565b60405180910390f35b610483600480360381019061047e9190613467565b610b73565b005b61048d610bee565b005b610497610c00565b6040516104a4919061327f565b60405180910390f35b6104b5610c16565b6040516104c291906132b0565b60405180910390f35b6104d3610c1f565b6040516104e09190613336565b60405180910390f35b6104f1610c43565b005b61050d600480360381019061050891906133a9565b610c56565b005b610517610ee8565b005b610521610efa565b6040516105349796959493929190613615565b60405180910390f35b610545610f9f565b6040516105529190613697565b60405180910390f35b61057560048036038101906105709190613467565b610fc7565b604051610582919061327f565b60405180910390f35b6105a560048036038101906105a09190613747565b61102b565b005b6105af6112b0565b6040516105bc9190613336565b60405180910390f35b6105df60048036038101906105da9190613817565b6112b6565b005b6105fb60048036038101906105f691906132f3565b6116be565b005b6106176004803603810190610612919061343c565b61172f565b604051610624919061327f565b60405180910390f35b6106476004803603810190610642919061343c565b61174c565b604051610654919061327f565b60405180910390f35b610665611769565b6040516106729190613336565b60405180910390f35b61069560048036038101906106909190613467565b61178d565b005b61069f6117af565b6040516106ac91906132b0565b60405180910390f35b6106cf60048036038101906106ca91906132f3565b6117bd565b005b6106eb60048036038101906106e691906132f3565b61182e565b005b6106f5611866565b60405161070291906138e3565b60405180910390f35b6107256004803603810190610720919061343c565b61188a565b604051610732919061327f565b60405180910390f35b610755600480360381019061075091906133e7565b6118a7565b005b610771600480360381019061076c9190613817565b61192b565b005b5f7f7965db0b000000000000000000000000000000000000000000000000000000007bffffffffffffffffffffffffffffffffffffffffffffffffffffffff1916827bffffffffffffffffffffffffffffffffffffffffffffffffffffffff191614806107e557506107e482611e04565b5b9050919050565b5f600b54905090565b7fd1af0f7454d50365c8d6fae2b2ef4533958eff44a75290fb04899bbd537cbd9261081f81611e6d565b6103e882111561085b576040517f070f2c0600000000000000000000000000000000000000000000000000000000815260040160405180910390fd5b81600e819055505050565b5f600d54905090565b7f9667e80708b6eeeb0053fa0cca44e028ff548e2a9f029edfeac87c118b08b7c881565b7f9667e80708b6eeeb0053fa0cca44e028ff548e2a9f029edfeac87c118b08b7c86108bd81611e6d565b6108c5611e81565b8160055f8573ffffffffffffffffffffffffffffffffffffffff1673ffffffffffffffffffffffffffffffffffffffff1681526020019081526020015f20541015610945576040517f08c379a000000000000000000000000000000000000000000000000000000000815260040161093c90613946565b60405180910390fd5b8160055f8573ffffffffffffffffffffffffffffffffffffffff1673ffffffffffffffffffffffffffffffffffffffff1681526020019081526020015f205f8282546109919190613991565b925050819055506109a28284611ec5565b6109aa612030565b505050565b6109b7611e81565b5f5f1b6109c381611e6d565b81600b5f8282546109d491906139c4565b92505081905550506109e4612030565b50565b5f60075f8373ffffffffffffffffffffffffffffffffffffffff1673ffffffffffffffffffffffffffffffffffffffff1681526020019081526020015f20549050919050565b5f60015f8381526020019081526020015f20600101549050919050565b7f7969942589b385a4e9a8aef4722c212233a04538ccac2ef459b60fa28ef0690b81565b610a7782610a2d565b610a8081611e6d565b610a8a8383612039565b50505050565b5f610a9a82612122565b9050919050565b5f5f7f000000000000000000000000000000000000000000000000000000000000000073ffffffffffffffffffffffffffffffffffffffff166370a08231846040518263ffffffff1660e01b8152600401610afc9190613697565b602060405180830381865afa158015610b17573d5f5f3e3d5ffd5b505050506040513d601f19601f82011682018060405250810190610b3b9190613a0b565b905080915050919050565b5f600c54905090565b7fd1af0f7454d50365c8d6fae2b2ef4533958eff44a75290fb04899bbd537cbd9281565b610b7b61218b565b73ffffffffffffffffffffffffffffffffffffffff168173ffffffffffffffffffffffffffffffffffffffff1614610bdf576040517f6697b23200000000000000000000000000000000000000000000000000000000815260040160405180910390fd5b610be98282612192565b505050565b610bf661227c565b610bfe612303565b565b5f600460149054906101000a900460ff16905090565b5f600e54905090565b7f5021b8b53ddfbcde6b7315ff88047837720a4fb2dca95d71a400cf1e43c5702f81565b610c4b61227c565b610c545f612365565b565b610c5e612428565b80600b54811115610c9b576040517f38c4061300000000000000000000000000000000000000000000000000000000815260040160405180910390fd5b815f610ca682612122565b9050670de0b6b3a76400006001610cbd9190613a36565b821015610cf6576040517fe279e70b00000000000000000000000000000000000000000000000000000000815260040160405180910390fd5b7f9f2df0fed2c77648de5860a4cc508cd0818c85b8b8a1ab4ceeef8d981c8956a6610d2081611e6d565b610d28611e81565b5f73ffffffffffffffffffffffffffffffffffffffff168673ffffffffffffffffffffffffffffffffffffffff1603610d8d576040517f3466ec1c00000000000000000000000000000000000000000000000000000000815260040160405180910390fd5b8460055f8873ffffffffffffffffffffffffffffffffffffffff1673ffffffffffffffffffffffffffffffffffffffff1681526020019081526020015f205f828254610dd991906139c4565b9250508190555084600b5f828254610df19190613991565b925050819055507f000000000000000000000000000000000000000000000000000000000000000073ffffffffffffffffffffffffffffffffffffffff166340c10f1987876040518363ffffffff1660e01b8152600401610e53929190613a77565b6020604051808303815f875af1158015610e6f573d5f5f3e3d5ffd5b505050506040513d601f19601f82011682018060405250810190610e939190613ac8565b50848673ffffffffffffffffffffffffffffffffffffffff167fc00d75e9be180d3f5cead991d8ff72f84c84fe7c586f2e260a5ea84f9ff5098660405160405180910390a3610ee0612030565b505050505050565b610ef061227c565b610ef8612469565b565b5f6060805f5f5f6060610f0b6124cc565b610f13612507565b46305f5f1b5f67ffffffffffffffff811115610f3257610f31613af3565b5b604051908082528060200260200182016040528015610f605781602001602082028036833780820191505090505b507f0f00000000000000000000000000000000000000000000000000000000000000959493929190965096509650965096509650965090919293949596565b5f60045f9054906101000a900473ffffffffffffffffffffffffffffffffffffffff16905090565b5f60015f8481526020019081526020015f205f015f8373ffffffffffffffffffffffffffffffffffffffff1673ffffffffffffffffffffffffffffffffffffffff1681526020019081526020015f205f9054906101000a900460ff16905092915050565b611033612428565b5f73ffffffffffffffffffffffffffffffffffffffff168873ffffffffffffffffffffffffffffffffffffffff1603611098576040517f3466ec1c00000000000000000000000000000000000000000000000000000000815260040160405180910390fd5b60095f8a81526020019081526020015f205f9054906101000a900460ff16156110f6576040517f08c379a00000000000000000000000000000000000000000000000000000000081526004016110ed90613b6a565b60405180910390fd5b600160095f8b81526020019081526020015f205f6101000a81548160ff0219169083151502179055507f000000000000000000000000000000000000000000000000000000000000000073ffffffffffffffffffffffffffffffffffffffff1663d505accf33308a8a8a8a8a6040518863ffffffff1660e01b81526004016111849796959493929190613b97565b5f604051808303815f87803b15801561119b575f5ffd5b505af11580156111ad573d5f5f3e3d5ffd5b505050508660065f3373ffffffffffffffffffffffffffffffffffffffff1673ffffffffffffffffffffffffffffffffffffffff1681526020019081526020015f20541015611228576040517ff10daad800000000000000000000000000000000000000000000000000000000815260040160405180910390fd5b6112358989898585612542565b61124033898961266a565b8773ffffffffffffffffffffffffffffffffffffffff163373ffffffffffffffffffffffffffffffffffffffff167f7d68590fdf608bf9db63c39512cc6d8205b34fcd25acc488bf5d6a841734fdf88960405161129d91906132b0565b60405180910390a3505050505050505050565b5f5f1b81565b6112be611e81565b600a5f8581526020019081526020015f205f9054906101000a900460ff161561131c576040517f08c379a000000000000000000000000000000000000000000000000000000000815260040161131390613c4e565b60405180910390fd5b5f830361135e576040517f08c379a000000000000000000000000000000000000000000000000000000000815260040161135590613cb6565b60405180910390fd5b5f7faec02e6abacab3b4312f7cae90e767d583063ed7fdb58751700e1eea5ec13b458533866040516020016113969493929190613cd4565b6040516020818303038152906040528051906020012090505f6113b88261296b565b90505f61141185858080601f0160208091040260200160405190810160405280939291908181526020018383808284375f81840152601f19601f820116905080830192505050505050508361298490919063ffffffff16565b905061143d7f9f2df0fed2c77648de5860a4cc508cd0818c85b8b8a1ab4ceeef8d981c8956a682610fc7565b61147c576040517f08c379a000000000000000000000000000000000000000000000000000000000815260040161147390613d61565b60405180910390fd5b6001600a5f8981526020019081526020015f205f6101000a81548160ff0219169083151502179055508560065f3373ffffffffffffffffffffffffffffffffffffffff1673ffffffffffffffffffffffffffffffffffffffff1681526020019081526020015f205f8282546114f19190613991565b925050819055505f7f000000000000000000000000000000000000000000000000000000000000000073ffffffffffffffffffffffffffffffffffffffff166323b872dd33308a6040518463ffffffff1660e01b815260040161155693929190613d7f565b6020604051808303815f875af1158015611572573d5f5f3e3d5ffd5b505050506040513d601f19601f820116820180604052508101906115969190613ac8565b9050806115d8576040517f08c379a00000000000000000000000000000000000000000000000000000000081526004016115cf90613dfe565b60405180910390fd5b7f000000000000000000000000000000000000000000000000000000000000000073ffffffffffffffffffffffffffffffffffffffff166342966c68886040518263ffffffff1660e01b815260040161163191906132b0565b5f604051808303815f87803b158015611648575f5ffd5b505af115801561165a573d5f5f3e3d5ffd5b505050503373ffffffffffffffffffffffffffffffffffffffff167fc10cd90de32483572006e673f57d6ada13c7ad52bfe762d943d5beefb802dfd3886040516116a491906132b0565b60405180910390a2505050506116b8612030565b50505050565b7fd1af0f7454d50365c8d6fae2b2ef4533958eff44a75290fb04899bbd537cbd926116e881611e6d565b6103e8821115611724576040517f070f2c0600000000000000000000000000000000000000000000000000000000815260040160405180910390fd5b81600d819055505050565b6008602052805f5260405f205f915054906101000a900460ff1681565b6009602052805f5260405f205f915054906101000a900460ff1681565b7f9f2df0fed2c77648de5860a4cc508cd0818c85b8b8a1ab4ceeef8d981c8956a681565b61179682610a2d565b61179f81611e6d565b6117a98383612192565b50505050565b5f6117b86129ae565b905090565b7fd1af0f7454d50365c8d6fae2b2ef4533958eff44a75290fb04899bbd537cbd926117e781611e6d565b6103e8821115611823576040517f070f2c0600000000000000000000000000000000000000000000000000000000815260040160405180910390fd5b816010819055505050565b611836611e81565b5f5f1b61184281611e6d565b81600c5f82825461185391906139c4565b9250508190555050611863612030565b50565b7f000000000000000000000000000000000000000000000000000000000000000081565b600a602052805f5260405f205f915054906101000a900460ff1681565b6118af61227c565b5f73ffffffffffffffffffffffffffffffffffffffff168173ffffffffffffffffffffffffffffffffffffffff160361191f575f6040517f1e4fbdf70000000000000000000000000000000000000000000000000000000081526004016119169190613697565b60405180910390fd5b61192881612365565b50565b611933612428565b60085f8581526020019081526020015f205f9054906101000a900460ff1615611991576040517f08c379a000000000000000000000000000000000000000000000000000000000815260040161198890613e8c565b60405180910390fd5b5f7eeed34b61e8e90db1d654437bea1dea8a38bc435ae07425566282215a6d91bf8533866040516020016119c89493929190613cd4565b6040516020818303038152906040528051906020012090505f6119ea8261296b565b90505f611a4385858080601f0160208091040260200160405190810160405280939291908181526020018383808284375f81840152601f19601f820116905080830192505050505050508361298490919063ffffffff16565b9050611a6f7f9f2df0fed2c77648de5860a4cc508cd0818c85b8b8a1ab4ceeef8d981c8956a682610fc7565b611aae576040517f08c379a0000000000000000000000000000000000000000000000000000000008152600401611aa590613f1a565b60405180910390fd5b5f611ab887612122565b90505f612710600d5483611acc9190613a36565b611ad69190613f65565b90505f8183611ae59190613991565b9050600160085f8c81526020019081526020015f205f6101000a81548160ff0219169083151502179055508060065f3373ffffffffffffffffffffffffffffffffffffffff1673ffffffffffffffffffffffffffffffffffffffff1681526020019081526020015f205f828254611b5c91906139c4565b925050819055505f821115611d17577f000000000000000000000000000000000000000000000000000000000000000073ffffffffffffffffffffffffffffffffffffffff166340c10f1933836040518363ffffffff1660e01b8152600401611bc6929190613a77565b6020604051808303815f875af1158015611be2573d5f5f3e3d5ffd5b505050506040513d601f19601f82011682018060405250810190611c069190613ac8565b507f000000000000000000000000000000000000000000000000000000000000000073ffffffffffffffffffffffffffffffffffffffff166340c10f1960115f9054906101000a900473ffffffffffffffffffffffffffffffffffffffff16846040518363ffffffff1660e01b8152600401611c83929190613a77565b6020604051808303815f875af1158015611c9f573d5f5f3e3d5ffd5b505050506040513d601f19601f82011682018060405250810190611cc39190613ac8565b503373ffffffffffffffffffffffffffffffffffffffff167fbde344b6f67c3bf7e0ecbbf22b04267d5d3ae0aa1909c0000b812f6b14ce45b983604051611d0a9190613fdf565b60405180910390a2611db4565b7f000000000000000000000000000000000000000000000000000000000000000073ffffffffffffffffffffffffffffffffffffffff166340c10f1933856040518363ffffffff1660e01b8152600401611d72929190613a77565b6020604051808303815f875af1158015611d8e573d5f5f3e3d5ffd5b505050506040513d601f19601f82011682018060405250810190611db29190613ac8565b505b823373ffffffffffffffffffffffffffffffffffffffff167fc00d75e9be180d3f5cead991d8ff72f84c84fe7c586f2e260a5ea84f9ff5098660405160405180910390a350505050505050505050565b5f7f01ffc9a7000000000000000000000000000000000000000000000000000000007bffffffffffffffffffffffffffffffffffffffffffffffffffffffff1916827bffffffffffffffffffffffffffffffffffffffffffffffffffffffff1916149050919050565b611e7e81611e7961218b565b612a9c565b50565b60025f5403611ebc576040517f3ee5aeb500000000000000000000000000000000000000000000000000000000815260040160405180910390fd5b60025f81905550565b5f7f000000000000000000000000000000000000000000000000000000000000000073ffffffffffffffffffffffffffffffffffffffff166323b872dd8330866040518463ffffffff1660e01b8152600401611f2393929190613d7f565b6020604051808303815f875af1158015611f3f573d5f5f3e3d5ffd5b505050506040513d601f19601f82011682018060405250810190611f639190613ac8565b905080611fa5576040517f08c379a0000000000000000000000000000000000000000000000000000000008152600401611f9c90614055565b60405180910390fd5b7f000000000000000000000000000000000000000000000000000000000000000073ffffffffffffffffffffffffffffffffffffffff166342966c68846040518263ffffffff1660e01b8152600401611ffe91906132b0565b5f604051808303815f87803b158015612015575f5ffd5b505af1158015612027573d5f5f3e3d5ffd5b50505050505050565b60015f81905550565b5f6120448383610fc7565b612118576001805f8581526020019081526020015f205f015f8473ffffffffffffffffffffffffffffffffffffffff1673ffffffffffffffffffffffffffffffffffffffff1681526020019081526020015f205f6101000a81548160ff0219169083151502179055506120b561218b565b73ffffffffffffffffffffffffffffffffffffffff168273ffffffffffffffffffffffffffffffffffffffff16847f2f8788117e7eff1d82e926ec794901d17c78024a50270940304540a733656f0d60405160405180910390a46001905061211c565b5f90505b92915050565b5f5f61212c6129ae565b90505f8111612170576040517f08c379a0000000000000000000000000000000000000000000000000000000008152600401612167906140bd565b60405180910390fd5b61218383670de0b6b3a764000083612aed565b915050919050565b5f33905090565b5f61219d8383610fc7565b15612272575f60015f8581526020019081526020015f205f015f8473ffffffffffffffffffffffffffffffffffffffff1673ffffffffffffffffffffffffffffffffffffffff1681526020019081526020015f205f6101000a81548160ff02191690831515021790555061220f61218b565b73ffffffffffffffffffffffffffffffffffffffff168273ffffffffffffffffffffffffffffffffffffffff16847ff6391f5c32d9c69d2a47ea670b442974b53935d1edc7fd64eb21e047a839171b60405160405180910390a460019050612276565b5f90505b92915050565b61228461218b565b73ffffffffffffffffffffffffffffffffffffffff166122a2610f9f565b73ffffffffffffffffffffffffffffffffffffffff1614612301576122c561218b565b6040517f118cdaa70000000000000000000000000000000000000000000000000000000081526004016122f89190613697565b60405180910390fd5b565b61230b612bd2565b5f600460146101000a81548160ff0219169083151502179055507f5db9ee0a495bf2e6ff9c91a7834c1ba4fdd244a5e8aa4e537bd38aeae4b073aa61234e61218b565b60405161235b9190613697565b60405180910390a1565b5f60045f9054906101000a900473ffffffffffffffffffffffffffffffffffffffff1690508160045f6101000a81548173ffffffffffffffffffffffffffffffffffffffff021916908373ffffffffffffffffffffffffffffffffffffffff1602179055508173ffffffffffffffffffffffffffffffffffffffff168173ffffffffffffffffffffffffffffffffffffffff167f8be0079c531659141344cd1fd0a4f28419497f9722a3daafe3b4186f6b6457e060405160405180910390a35050565b612430610c00565b15612467576040517fd93c066500000000000000000000000000000000000000000000000000000000815260040160405180910390fd5b565b612471612428565b6001600460146101000a81548160ff0219169083151502179055507f62e78cea01bee320cd4e420270b5ea74000d11b0c9f74754ebdbfc544b05a2586124b561218b565b6040516124c29190613697565b60405180910390a1565b606061250260027f0000000000000000000000000000000000000000000000000000000000000000612c1290919063ffffffff16565b905090565b606061253d60037f0000000000000000000000000000000000000000000000000000000000000000612c1290919063ffffffff16565b905090565b5f7f127e38ebf60d1c0e9a279d1e754b0ea7101388d477edc605b858b4b01c97eea786868660405160200161257a9493929190613cd4565b6040516020818303038152906040528051906020012090505f61259c8261296b565b90505f6125f585858080601f0160208091040260200160405190810160405280939291908181526020018383808284375f81840152601f19601f820116905080830192505050505050508361298490919063ffffffff16565b90506126217f9f2df0fed2c77648de5860a4cc508cd0818c85b8b8a1ab4ceeef8d981c8956a682610fc7565b612660576040517f08c379a000000000000000000000000000000000000000000000000000000000815260040161265790614125565b60405180910390fd5b5050505050505050565b5f612710600e548361267c9190613a36565b6126869190613f65565b90505f81836126959190613991565b90508060065f8773ffffffffffffffffffffffffffffffffffffffff1673ffffffffffffffffffffffffffffffffffffffff1681526020019081526020015f205f8282546126e39190613991565b925050819055508060065f8673ffffffffffffffffffffffffffffffffffffffff1673ffffffffffffffffffffffffffffffffffffffff1681526020019081526020015f205f82825461273691906139c4565b925050819055507f000000000000000000000000000000000000000000000000000000000000000073ffffffffffffffffffffffffffffffffffffffff166323b872dd8686846040518463ffffffff1660e01b815260040161279a93929190613d7f565b6020604051808303815f875af11580156127b6573d5f5f3e3d5ffd5b505050506040513d601f19601f820116820180604052508101906127da9190613ac8565b612819576040517f08c379a000000000000000000000000000000000000000000000000000000000815260040161281090613dfe565b60405180910390fd5b7f000000000000000000000000000000000000000000000000000000000000000073ffffffffffffffffffffffffffffffffffffffff166323b872dd8660115f9054906101000a900473ffffffffffffffffffffffffffffffffffffffff16856040518463ffffffff1660e01b815260040161289793929190613d7f565b6020604051808303815f875af11580156128b3573d5f5f3e3d5ffd5b505050506040513d601f19601f820116820180604052508101906128d79190613ac8565b612916576040517f08c379a000000000000000000000000000000000000000000000000000000000815260040161290d9061418d565b60405180910390fd5b8473ffffffffffffffffffffffffffffffffffffffff167fbde344b6f67c3bf7e0ecbbf22b04267d5d3ae0aa1909c0000b812f6b14ce45b98360405161295c91906141f5565b60405180910390a25050505050565b5f61297d612977612cbf565b83612d75565b9050919050565b5f5f5f5f6129928686612db5565b9250925092506129a28282612e0a565b82935050505092915050565b5f5f7f000000000000000000000000000000000000000000000000000000000000000073ffffffffffffffffffffffffffffffffffffffff1663feaf968c6040518163ffffffff1660e01b815260040160a060405180830381865afa158015612a19573d5f5f3e3d5ffd5b505050506040513d601f19601f82011682018060405250810190612a3d9190614293565b5050509150505f8113612a85576040517f08c379a0000000000000000000000000000000000000000000000000000000008152600401612a7c90614354565b60405180910390fd5b6402540be40081612a969190613a36565b91505090565b612aa68282610fc7565b612ae95780826040517fe2517d3f000000000000000000000000000000000000000000000000000000008152600401612ae0929190614372565b60405180910390fd5b5050565b5f5f83850290505f5f19858709828110838203039150505f8103612b2557838281612b1b57612b1a613f38565b5b0492505050612bcb565b808411612b4457612b43612b3e5f861460126011612f6c565b612f85565b5b5f8486880990508281118203915080830392505f855f038616905080860495508084049350600181825f0304019050808302841793505f600287600302189050808702600203810290508087026002038102905080870260020381029050808702600203810290508087026002038102905080870260020381029050808502955050505050505b9392505050565b612bda610c00565b612c10576040517f8dfc202b00000000000000000000000000000000000000000000000000000000815260040160405180910390fd5b565b606060ff5f1b8314612c2e57612c2783612f96565b9050612cb9565b818054612c3a906143c6565b80601f0160208091040260200160405190810160405280929190818152602001828054612c66906143c6565b8015612cb15780601f10612c8857610100808354040283529160200191612cb1565b820191905f5260205f20905b815481529060010190602001808311612c9457829003601f168201915b505050505090505b92915050565b5f7f000000000000000000000000000000000000000000000000000000000000000073ffffffffffffffffffffffffffffffffffffffff163073ffffffffffffffffffffffffffffffffffffffff16148015612d3a57507f000000000000000000000000000000000000000000000000000000000000000046145b15612d67577f00000000000000000000000000000000000000000000000000000000000000009050612d72565b612d6f613008565b90505b90565b5f6040517f190100000000000000000000000000000000000000000000000000000000000081528360028201528260228201526042812091505092915050565b5f5f5f6041845103612df5575f5f5f602087015192506040870151915060608701515f1a9050612de78882858561309d565b955095509550505050612e03565b5f600285515f1b9250925092505b9250925092565b5f6003811115612e1d57612e1c6143f6565b5b826003811115612e3057612e2f6143f6565b5b0315612f685760016003811115612e4a57612e496143f6565b5b826003811115612e5d57612e5c6143f6565b5b03612e94576040517ff645eedf00000000000000000000000000000000000000000000000000000000815260040160405180910390fd5b60026003811115612ea857612ea76143f6565b5b826003811115612ebb57612eba6143f6565b5b03612eff57805f1c6040517ffce698f7000000000000000000000000000000000000000000000000000000008152600401612ef691906132b0565b60405180910390fd5b600380811115612f1257612f116143f6565b5b826003811115612f2557612f246143f6565b5b03612f6757806040517fd78bce0c000000000000000000000000000000000000000000000000000000008152600401612f5e9190613336565b60405180910390fd5b5b5050565b5f612f7684613184565b82841802821890509392505050565b634e487b715f52806020526024601cfd5b60605f612fa28361318f565b90505f602067ffffffffffffffff811115612fc057612fbf613af3565b5b6040519080825280601f01601f191660200182016040528015612ff25781602001600182028036833780820191505090505b5090508181528360208201528092505050919050565b5f7f8b73c3c69bb8fe3d512ecc4cf759cc79239f7b179b0ffacaa9a75d522b39400f7f00000000000000000000000000000000000000000000000000000000000000007f00000000000000000000000000000000000000000000000000000000000000004630604051602001613082959493929190614423565b60405160208183030381529060405280519060200120905090565b5f5f5f7f7fffffffffffffffffffffffffffffff5d576e7357a4501ddfe92f46681b20a0845f1c11156130d9575f60038592509250925061317a565b5f6001888888886040515f81526020016040526040516130fc9493929190614474565b6020604051602081039080840390855afa15801561311c573d5f5f3e3d5ffd5b5050506020604051035190505f73ffffffffffffffffffffffffffffffffffffffff168173ffffffffffffffffffffffffffffffffffffffff160361316d575f60015f5f1b9350935093505061317a565b805f5f5f1b935093509350505b9450945094915050565b5f8115159050919050565b5f5f60ff835f1c169050601f8111156131d4576040517fb3512b0c00000000000000000000000000000000000000000000000000000000815260040160405180910390fd5b80915050919050565b5f5ffd5b5f5ffd5b5f7fffffffff0000000000000000000000000000000000000000000000000000000082169050919050565b613219816131e5565b8114613223575f5ffd5b50565b5f8135905061323481613210565b92915050565b5f6020828403121561324f5761324e6131dd565b5b5f61325c84828501613226565b91505092915050565b5f8115159050919050565b61327981613265565b82525050565b5f6020820190506132925f830184613270565b92915050565b5f819050919050565b6132aa81613298565b82525050565b5f6020820190506132c35f8301846132a1565b92915050565b6132d281613298565b81146132dc575f5ffd5b50565b5f813590506132ed816132c9565b92915050565b5f60208284031215613308576133076131dd565b5b5f613315848285016132df565b91505092915050565b5f819050919050565b6133308161331e565b82525050565b5f6020820190506133495f830184613327565b92915050565b5f73ffffffffffffffffffffffffffffffffffffffff82169050919050565b5f6133788261334f565b9050919050565b6133888161336e565b8114613392575f5ffd5b50565b5f813590506133a38161337f565b92915050565b5f5f604083850312156133bf576133be6131dd565b5b5f6133cc85828601613395565b92505060206133dd858286016132df565b9150509250929050565b5f602082840312156133fc576133fb6131dd565b5b5f61340984828501613395565b91505092915050565b61341b8161331e565b8114613425575f5ffd5b50565b5f8135905061343681613412565b92915050565b5f60208284031215613451576134506131dd565b5b5f61345e84828501613428565b91505092915050565b5f5f6040838503121561347d5761347c6131dd565b5b5f61348a85828601613428565b925050602061349b85828601613395565b9150509250929050565b5f7fff0000000000000000000000000000000000000000000000000000000000000082169050919050565b6134d9816134a5565b82525050565b5f81519050919050565b5f82825260208201905092915050565b8281835e5f83830152505050565b5f601f19601f8301169050919050565b5f613521826134df565b61352b81856134e9565b935061353b8185602086016134f9565b61354481613507565b840191505092915050565b6135588161336e565b82525050565b5f81519050919050565b5f82825260208201905092915050565b5f819050602082019050919050565b61359081613298565b82525050565b5f6135a18383613587565b60208301905092915050565b5f602082019050919050565b5f6135c38261355e565b6135cd8185613568565b93506135d883613578565b805f5b838110156136085781516135ef8882613596565b97506135fa836135ad565b9250506001810190506135db565b5085935050505092915050565b5f60e0820190506136285f83018a6134d0565b818103602083015261363a8189613517565b9050818103604083015261364e8188613517565b905061365d60608301876132a1565b61366a608083018661354f565b61367760a0830185613327565b81810360c083015261368981846135b9565b905098975050505050505050565b5f6020820190506136aa5f83018461354f565b92915050565b5f60ff82169050919050565b6136c5816136b0565b81146136cf575f5ffd5b50565b5f813590506136e0816136bc565b92915050565b5f5ffd5b5f5ffd5b5f5ffd5b5f5f83601f840112613707576137066136e6565b5b8235905067ffffffffffffffff811115613724576137236136ea565b5b6020830191508360018202830111156137405761373f6136ee565b5b9250929050565b5f5f5f5f5f5f5f5f5f6101008a8c031215613765576137646131dd565b5b5f6137728c828d01613428565b99505060206137838c828d01613395565b98505060406137948c828d016132df565b97505060606137a58c828d016132df565b96505060806137b68c828d016136d2565b95505060a06137c78c828d01613428565b94505060c06137d88c828d01613428565b93505060e08a013567ffffffffffffffff8111156137f9576137f86131e1565b5b6138058c828d016136f2565b92509250509295985092959850929598565b5f5f5f5f6060858703121561382f5761382e6131dd565b5b5f61383c87828801613428565b945050602061384d878288016132df565b935050604085013567ffffffffffffffff81111561386e5761386d6131e1565b5b61387a878288016136f2565b925092505092959194509250565b5f819050919050565b5f6138ab6138a66138a18461334f565b613888565b61334f565b9050919050565b5f6138bc82613891565b9050919050565b5f6138cd826138b2565b9050919050565b6138dd816138c3565b82525050565b5f6020820190506138f65f8301846138d4565b92915050565b7f496e73756666696369656e74206d696e74656420746f6b656e730000000000005f82015250565b5f613930601a836134e9565b915061393b826138fc565b602082019050919050565b5f6020820190508181035f83015261395d81613924565b9050919050565b7f4e487b71000000000000000000000000000000000000000000000000000000005f52601160045260245ffd5b5f61399b82613298565b91506139a683613298565b92508282039050818111156139be576139bd613964565b5b92915050565b5f6139ce82613298565b91506139d983613298565b92508282019050808211156139f1576139f0613964565b5b92915050565b5f81519050613a05816132c9565b92915050565b5f60208284031215613a2057613a1f6131dd565b5b5f613a2d848285016139f7565b91505092915050565b5f613a4082613298565b9150613a4b83613298565b9250828202613a5981613298565b91508282048414831517613a7057613a6f613964565b5b5092915050565b5f604082019050613a8a5f83018561354f565b613a9760208301846132a1565b9392505050565b613aa781613265565b8114613ab1575f5ffd5b50565b5f81519050613ac281613a9e565b92915050565b5f60208284031215613add57613adc6131dd565b5b5f613aea84828501613ab4565b91505092915050565b7f4e487b71000000000000000000000000000000000000000000000000000000005f52604160045260245ffd5b7f416c72656164792070726f6365737365640000000000000000000000000000005f82015250565b5f613b546011836134e9565b9150613b5f82613b20565b602082019050919050565b5f6020820190508181035f830152613b8181613b48565b9050919050565b613b91816136b0565b82525050565b5f60e082019050613baa5f83018a61354f565b613bb7602083018961354f565b613bc460408301886132a1565b613bd160608301876132a1565b613bde6080830186613b88565b613beb60a0830185613327565b613bf860c0830184613327565b98975050505050505050565b7f4275726e20616c72656164792070726f636573736564000000000000000000005f82015250565b5f613c386016836134e9565b9150613c4382613c04565b602082019050919050565b5f6020820190508181035f830152613c6581613c2c565b9050919050565b7f416d6f756e74206d757374206265206d6f7265207468616e207a65726f0000005f82015250565b5f613ca0601d836134e9565b9150613cab82613c6c565b602082019050919050565b5f6020820190508181035f830152613ccd81613c94565b9050919050565b5f608082019050613ce75f830187613327565b613cf46020830186613327565b613d01604083018561354f565b613d0e60608301846132a1565b95945050505050565b7f556e617574686f72697a6564206261636b656e64207369676e657200000000005f82015250565b5f613d4b601b836134e9565b9150613d5682613d17565b602082019050919050565b5f6020820190508181035f830152613d7881613d3f565b9050919050565b5f606082019050613d925f83018661354f565b613d9f602083018561354f565b613dac60408301846132a1565b949350505050565b7f5472616e73666572206661696c656400000000000000000000000000000000005f82015250565b5f613de8600f836134e9565b9150613df382613db4565b602082019050919050565b5f6020820190508181035f830152613e1581613ddc565b9050919050565b7f515047456e67696e653a2072657175657374496420616c72656164792070726f5f8201527f6365737365640000000000000000000000000000000000000000000000000000602082015250565b5f613e766026836134e9565b9150613e8182613e1c565b604082019050919050565b5f6020820190508181035f830152613ea381613e6a565b9050919050565b7f515047456e67696e653a20696e76616c6964206f7220756e617574686f72697a5f8201527f6564207369676e65720000000000000000000000000000000000000000000000602082015250565b5f613f046029836134e9565b9150613f0f82613eaa565b604082019050919050565b5f6020820190508181035f830152613f3181613ef8565b9050919050565b7f4e487b71000000000000000000000000000000000000000000000000000000005f52601260045260245ffd5b5f613f6f82613298565b9150613f7a83613298565b925082613f8a57613f89613f38565b5b828204905092915050565b7f4d494e545f52455441494c4552000000000000000000000000000000000000005f82015250565b5f613fc9600d836134e9565b9150613fd482613f95565b602082019050919050565b5f604082019050613ff25f8301846132a1565b818103602083015261400381613fbd565b905092915050565b7f5472616e736665722066726f6d2075736572206661696c6564000000000000005f82015250565b5f61403f6019836134e9565b915061404a8261400b565b602082019050919050565b5f6020820190508181035f83015261406c81614033565b9050919050565b7f496e76616c696420676f6c6420707269636500000000000000000000000000005f82015250565b5f6140a76012836134e9565b91506140b282614073565b602082019050919050565b5f6020820190508181035f8301526140d48161409b565b9050919050565b7f556e617574686f72697a6564207369676e6572000000000000000000000000005f82015250565b5f61410f6013836134e9565b915061411a826140db565b602082019050919050565b5f6020820190508181035f83015261413c81614103565b9050919050565b7f466565207472616e73666572206661696c6564000000000000000000000000005f82015250565b5f6141776013836134e9565b915061418282614143565b602082019050919050565b5f6020820190508181035f8301526141a48161416b565b9050919050565b7f53454e445f4d4f4e45595f52455441494c4552000000000000000000000000005f82015250565b5f6141df6013836134e9565b91506141ea826141ab565b602082019050919050565b5f6040820190506142085f8301846132a1565b8181036020830152614219816141d3565b905092915050565b5f69ffffffffffffffffffff82169050919050565b61423f81614221565b8114614249575f5ffd5b50565b5f8151905061425a81614236565b92915050565b5f819050919050565b61427281614260565b811461427c575f5ffd5b50565b5f8151905061428d81614269565b92915050565b5f5f5f5f5f60a086880312156142ac576142ab6131dd565b5b5f6142b98882890161424c565b95505060206142ca8882890161427f565b94505060406142db888289016139f7565b93505060606142ec888289016139f7565b92505060806142fd8882890161424c565b9150509295509295909350565b7f496e76616c6964207072696365000000000000000000000000000000000000005f82015250565b5f61433e600d836134e9565b91506143498261430a565b602082019050919050565b5f6020820190508181035f83015261436b81614332565b9050919050565b5f6040820190506143855f83018561354f565b6143926020830184613327565b9392505050565b7f4e487b71000000000000000000000000000000000000000000000000000000005f52602260045260245ffd5b5f60028204905060018216806143dd57607f821691505b6020821081036143f0576143ef614399565b5b50919050565b7f4e487b71000000000000000000000000000000000000000000000000000000005f52602160045260245ffd5b5f60a0820190506144365f830188613327565b6144436020830187613327565b6144506040830186613327565b61445d60608301856132a1565b61446a608083018461354f565b9695505050505050565b5f6080820190506144875f830187613327565b6144946020830186613b88565b6144a16040830185613327565b6144ae6060830184613327565b9594505050505056fea26469706673582212209b83fa1b086807ee2d84ede319cf1231f23f8eeaae5d8a19333efc6e920ecbc664736f6c634300081c0033","linkReferences":{}},"methodIdentifiers":{"BANK()":"2b9db81f","BURNER()":"118c4f13","CUSTODIAN()":"6944ddb4","DEFAULT_ADMIN_ROLE()":"a217fddf","FEE_CONTROLLER_ROLE()":"35de614f","MINTER_ROLE()":"d5391393","burnProcessed(bytes32)":"ec182440","eip712Domain()":"84b0196e","getAmountGoldToMint(uint256)":"3015b28b","getCurrentQPGLimitForInstitutions()":"0216921c","getCurrentQPGLimitForRetailUsers()":"356c598b","getGoldPrice()":"da6bae10","getMintingFeeForRetailersInPercentage()":"08f49122","getRoleAdmin(bytes32)":"248a9ca3","getSendMoneyFeeForRetailersInPercentage()":"6314a649","getUsdValueOfUsersGold(address)":"1ae86636","grantRole(bytes32,address)":"2f2ff15d","hasRole(bytes32,address)":"91d14854","mintQPGforInstitutions(address,uint256)":"75e57eb8","mintWithPermit(bytes32,uint256,bytes)":"f621929d","owner()":"8da5cb5b","pause()":"8456cb59","paused()":"5c975abb","processed(bytes32)":"c1f0808a","qpgBalance(address)":"356a7c32","redeemCollateralAndBurnQPGForInstitutions(address,uint256)":"12f48b79","redeemCollateralAndBurnQPGForRetailers(bytes32,uint256,bytes)":"b03c24d5","renounceOwnership()":"715018a6","renounceRole(bytes32,address)":"36568abe","revokeRole(bytes32,address)":"d547741f","setMintingFeeForInstitution(uint256)":"e48b8f04","setMintingFeeForRetailers(uint256)":"b302d069","setMintingLimitForInstitutions(uint256)":"187a30fb","setMintingLimitForRetailers(uint256)":"e87acdb5","setSendMoneyFeeForRetailers(uint256)":"0621c10c","supportsInterface(bytes4)":"01ffc9a7","transferForRetailersWithPermit(bytes32,address,uint256,uint256,uint8,bytes32,bytes32,bytes)":"a0b7a0f3","transferOwnership(address)":"f2fde38b","transferProcessed(bytes32)":"c26f3755","unpause()":"3f4ba83a","xauUsd()":"e925ac6c"},"id":43}