{"abi":[{"type":"constructor","inputs":[],"stateMutability":"nonpayable"},{"type":"function","name":"DOMAIN_SEPARATOR","inputs":[],"outputs":[{"name":"","type":"bytes32","internalType":"bytes32"}],"stateMutability":"view"},{"type":"function","name":"allowance","inputs":[{"name":"owner","type":"address","internalType":"address"},{"name":"spender","type":"address","internalType":"address"}],"outputs":[{"name":"","type":"uint256","internalType":"uint256"}],"stateMutability":"view"},{"type":"function","name":"approve","inputs":[{"name":"spender","type":"address","internalType":"address"},{"name":"value","type":"uint256","internalType":"uint256"}],"outputs":[{"name":"","type":"bool","internalType":"bool"}],"stateMutability":"nonpayable"},{"type":"function","name":"balanceOf","inputs":[{"name":"account","type":"address","internalType":"address"}],"outputs":[{"name":"","type":"uint256","internalType":"uint256"}],"stateMutability":"view"},{"type":"function","name":"burn","inputs":[{"name":"_amount","type":"uint256","internalType":"uint256"}],"outputs":[],"stateMutability":"nonpayable"},{"type":"function","name":"burnFrom","inputs":[{"name":"account","type":"address","internalType":"address"},{"name":"value","type":"uint256","internalType":"uint256"}],"outputs":[],"stateMutability":"nonpayable"},{"type":"function","name":"decimals","inputs":[],"outputs":[{"name":"","type":"uint8","internalType":"uint8"}],"stateMutability":"view"},{"type":"function","name":"eip712Domain","inputs":[],"outputs":[{"name":"fields","type":"bytes1","internalType":"bytes1"},{"name":"name","type":"string","internalType":"string"},{"name":"version","type":"string","internalType":"string"},{"name":"chainId","type":"uint256","internalType":"uint256"},{"name":"verifyingContract","type":"address","internalType":"address"},{"name":"salt","type":"bytes32","internalType":"bytes32"},{"name":"extensions","type":"uint256[]","internalType":"uint256[]"}],"stateMutability":"view"},{"type":"function","name":"mint","inputs":[{"name":"_to","type":"address","internalType":"address"},{"name":"_amount","type":"uint256","internalType":"uint256"}],"outputs":[{"name":"","type":"bool","internalType":"bool"}],"stateMutability":"nonpayable"},{"type":"function","name":"name","inputs":[],"outputs":[{"name":"","type":"string","internalType":"string"}],"stateMutability":"view"},{"type":"function","name":"nonces","inputs":[{"name":"owner","type":"address","internalType":"address"}],"outputs":[{"name":"","type":"uint256","internalType":"uint256"}],"stateMutability":"view"},{"type":"function","name":"owner","inputs":[],"outputs":[{"name":"","type":"address","internalType":"address"}],"stateMutability":"view"},{"type":"function","name":"permit","inputs":[{"name":"owner","type":"address","internalType":"address"},{"name":"spender","type":"address","internalType":"address"},{"name":"value","type":"uint256","internalType":"uint256"},{"name":"deadline","type":"uint256","internalType":"uint256"},{"name":"v","type":"uint8","internalType":"uint8"},{"name":"r","type":"bytes32","internalType":"bytes32"},{"name":"s","type":"bytes32","internalType":"bytes32"}],"outputs":[],"stateMutability":"nonpayable"},{"type":"function","name":"qpgEngineAddress","inputs":[],"outputs":[{"name":"","type":"address","internalType":"address"}],"stateMutability":"view"},{"type":"function","name":"renounceOwnership","inputs":[],"outputs":[],"stateMutability":"nonpayable"},{"type":"function","name":"setEngineAddress","inputs":[{"name":"_engine","type":"address","internalType":"address"}],"outputs":[],"stateMutability":"nonpayable"},{"type":"function","name":"symbol","inputs":[],"outputs":[{"name":"","type":"string","internalType":"string"}],"stateMutability":"view"},{"type":"function","name":"totalSupply","inputs":[],"outputs":[{"name":"","type":"uint256","internalType":"uint256"}],"stateMutability":"view"},{"type":"function","name":"transfer","inputs":[{"name":"to","type":"address","internalType":"address"},{"name":"value","type":"uint256","internalType":"uint256"}],"outputs":[{"name":"","type":"bool","internalType":"bool"}],"stateMutability":"nonpayable"},{"type":"function","name":"transfer","inputs":[{"name":"from","type":"address","internalType":"address"},{"name":"to","type":"address","internalType":"address"},{"name":"amount","type":"uint256","internalType":"uint256"}],"outputs":[{"name":"","type":"bool","internalType":"bool"}],"stateMutability":"nonpayable"},{"type":"function","name":"transferFrom","inputs":[{"name":"from","type":"address","internalType":"address"},{"name":"to","type":"address","internalType":"address"},{"name":"value","type":"uint256","internalType":"uint256"}],"outputs":[{"name":"","type":"bool","internalType":"bool"}],"stateMutability":"nonpayable"},{"type":"function","name":"transferOwnership","inputs":[{"name":"newOwner","type":"address","internalType":"address"}],"outputs":[],"stateMutability":"nonpayable"},{"type":"event","name":"Approval","inputs":[{"name":"owner","type":"address","indexed":true,"internalType":"address"},{"name":"spender","type":"address","indexed":true,"internalType":"address"},{"name":"value","type":"uint256","indexed":false,"internalType":"uint256"}],"anonymous":false},{"type":"event","name":"EIP712DomainChanged","inputs":[],"anonymous":false},{"type":"event","name":"OwnershipTransferred","inputs":[{"name":"previousOwner","type":"address","indexed":true,"internalType":"address"},{"name":"newOwner","type":"address","indexed":true,"internalType":"address"}],"anonymous":false},{"type":"event","name":"Transfer","inputs":[{"name":"from","type":"address","indexed":true,"internalType":"address"},{"name":"to","type":"address","indexed":true,"internalType":"address"},{"name":"value","type":"uint256","indexed":false,"internalType":"uint256"}],"anonymous":false},{"type":"error","name":"ECDSAInvalidSignature","inputs":[]},{"type":"error","name":"ECDSAInvalidSignatureLength","inputs":[{"name":"length","type":"uint256","internalType":"uint256"}]},{"type":"error","name":"ECDSAInvalidSignatureS","inputs":[{"name":"s","type":"bytes32","internalType":"bytes32"}]},{"type":"error","name":"ERC20InsufficientAllowance","inputs":[{"name":"spender","type":"address","internalType":"address"},{"name":"allowance","type":"uint256","internalType":"uint256"},{"name":"needed","type":"uint256","internalType":"uint256"}]},{"type":"error","name":"ERC20InsufficientBalance","inputs":[{"name":"sender","type":"address","internalType":"address"},{"name":"balance","type":"uint256","internalType":"uint256"},{"name":"needed","type":"uint256","internalType":"uint256"}]},{"type":"error","name":"ERC20InvalidApprover","inputs":[{"name":"approver","type":"address","internalType":"address"}]},{"type":"error","name":"ERC20InvalidReceiver","inputs":[{"name":"receiver","type":"address","internalType":"address"}]},{"type":"error","name":"ERC20InvalidSender","inputs":[{"name":"sender","type":"address","internalType":"address"}]},{"type":"error","name":"ERC20InvalidSpender","inputs":[{"name":"spender","type":"address","internalType":"address"}]},{"type":"error","name":"ERC2612ExpiredSignature","inputs":[{"name":"deadline","type":"uint256","internalType":"uint256"}]},{"type":"error","name":"ERC2612InvalidSigner","inputs":[{"name":"signer","type":"address","internalType":"address"},{"name":"owner","type":"address","internalType":"address"}]},{"type":"error","name":"InvalidAccountNonce","inputs":[{"name":"account","type":"address","internalType":"address"},{"name":"currentNonce","type":"uint256","internalType":"uint256"}]},{"type":"error","name":"InvalidShortString","inputs":[]},{"type":"error","name":"OwnableInvalidOwner","inputs":[{"name":"owner","type":"address","internalType":"address"}]},{"type":"error","name":"OwnableUnauthorizedAccount","inputs":[{"name":"account","type":"address","internalType":"address"}]},{"type":"error","name":"QPGStableCoin__AmountMustBeMoreThanZero","inputs":[]},{"type":"error","name":"QPGStableCoin__BurnAmountExceedsBalance","inputs":[]},{"type":"error","name":"QPGStableCoin__NotZeroAddress","inputs":[]},{"type":"error","name":"StringTooLong","inputs":[{"name":"str","type":"string","internalType":"string"}]}],"bytecode":{"object":"0x610160604052348015610010575f5ffd5b50336040518060400160405280601f81526020017f5175616e74756d20506f73736962696c697469657320476f6c6420436f696e00815250806040518060400160405280600181526020017f31000000000000000000000000000000000000000000000000000000000000008152506040518060400160405280601f81526020017f5175616e74756d20506f73736962696c697469657320476f6c6420436f696e008152506040518060400160405280600381526020017f515047000000000000000000000000000000000000000000000000000000000081525081600390816100fa9190610652565b50806004908161010a9190610652565b50505061012160058361023d60201b90919060201c565b610120818152505061013d60068261023d60201b90919060201c565b6101408181525050818051906020012060e08181525050808051906020012061010081815250504660a0818152505061017a61028a60201b60201c565b608081815250503073ffffffffffffffffffffffffffffffffffffffff1660c08173ffffffffffffffffffffffffffffffffffffffff16815250505050505f73ffffffffffffffffffffffffffffffffffffffff168173ffffffffffffffffffffffffffffffffffffffff1603610228575f6040517f1e4fbdf700000000000000000000000000000000000000000000000000000000815260040161021f9190610760565b60405180910390fd5b610237816102e460201b60201c565b5061090a565b5f60208351101561025e57610257836103a760201b60201c565b9050610284565b8261026e8361040c60201b60201c565b5f01908161027c9190610652565b5060ff5f1b90505b92915050565b5f7f8b73c3c69bb8fe3d512ecc4cf759cc79239f7b179b0ffacaa9a75d522b39400f60e0516101005146306040516020016102c99594939291906107a0565b60405160208183030381529060405280519060200120905090565b5f60085f9054906101000a900473ffffffffffffffffffffffffffffffffffffffff1690508160085f6101000a81548173ffffffffffffffffffffffffffffffffffffffff021916908373ffffffffffffffffffffffffffffffffffffffff1602179055508173ffffffffffffffffffffffffffffffffffffffff168173ffffffffffffffffffffffffffffffffffffffff167f8be0079c531659141344cd1fd0a4f28419497f9722a3daafe3b4186f6b6457e060405160405180910390a35050565b5f5f829050601f815111156103f357826040517f305a27a90000000000000000000000000000000000000000000000000000000081526004016103ea9190610857565b60405180910390fd5b8051816103ff906108a4565b5f1c175f1b915050919050565b5f819050919050565b5f81519050919050565b7f4e487b71000000000000000000000000000000000000000000000000000000005f52604160045260245ffd5b7f4e487b71000000000000000000000000000000000000000000000000000000005f52602260045260245ffd5b5f600282049050600182168061049057607f821691505b6020821081036104a3576104a261044c565b5b50919050565b5f819050815f5260205f209050919050565b5f6020601f8301049050919050565b5f82821b905092915050565b5f600883026105057fffffffffffffffffffffffffffffffffffffffffffffffffffffffffffffffff826104ca565b61050f86836104ca565b95508019841693508086168417925050509392505050565b5f819050919050565b5f819050919050565b5f61055361054e61054984610527565b610530565b610527565b9050919050565b5f819050919050565b61056c83610539565b6105806105788261055a565b8484546104d6565b825550505050565b5f5f905090565b610597610588565b6105a2818484610563565b505050565b5b818110156105c5576105ba5f8261058f565b6001810190506105a8565b5050565b601f82111561060a576105db816104a9565b6105e4846104bb565b810160208510156105f3578190505b6106076105ff856104bb565b8301826105a7565b50505b505050565b5f82821c905092915050565b5f61062a5f198460080261060f565b1980831691505092915050565b5f610642838361061b565b9150826002028217905092915050565b61065b82610415565b67ffffffffffffffff8111156106745761067361041f565b5b61067e8254610479565b6106898282856105c9565b5f60209050601f8311600181146106ba575f84156106a8578287015190505b6106b28582610637565b865550610719565b601f1984166106c8866104a9565b5f5b828110156106ef578489015182556001820191506020850194506020810190506106ca565b8683101561070c5784890151610708601f89168261061b565b8355505b6001600288020188555050505b505050505050565b5f73ffffffffffffffffffffffffffffffffffffffff82169050919050565b5f61074a82610721565b9050919050565b61075a81610740565b82525050565b5f6020820190506107735f830184610751565b92915050565b5f819050919050565b61078b81610779565b82525050565b61079a81610527565b82525050565b5f60a0820190506107b35f830188610782565b6107c06020830187610782565b6107cd6040830186610782565b6107da6060830185610791565b6107e76080830184610751565b9695505050505050565b5f82825260208201905092915050565b8281835e5f83830152505050565b5f601f19601f8301169050919050565b5f61082982610415565b61083381856107f1565b9350610843818560208601610801565b61084c8161080f565b840191505092915050565b5f6020820190508181035f83015261086f818461081f565b905092915050565b5f81519050919050565b5f819050602082019050919050565b5f61089b8251610779565b80915050919050565b5f6108ae82610877565b826108b884610881565b90506108c381610890565b92506020821015610903576108fe7fffffffffffffffffffffffffffffffffffffffffffffffffffffffffffffffff836020036008026104ca565b831692505b5050919050565b60805160a05160c05160e0516101005161012051610140516123c561095b5f395f6111f301525f6111b801525f6116ec01525f6116cb01525f610e5a01525f610eb001525f610ed901526123c55ff3fe608060405234801561000f575f5ffd5b5060043610610140575f3560e01c8063715018a6116100b657806395d89b411161007a57806395d89b411461036a578063a9059cbb14610388578063beabacc8146103b8578063d505accf146103e8578063dd62ed3e14610404578063f2fde38b1461043457610140565b8063715018a6146102d257806379cc6790146102dc5780637ecebe00146102f857806384b0196e146103285780638da5cb5b1461034c57610140565b8063313ce56711610108578063313ce567146101fe5780633644e5151461021c57806340c10f191461023a57806342966c681461026a578063615bc5131461028657806370a08231146102a257610140565b806306fdde0314610144578063095ea7b31461016257806318160ddd1461019257806319c7899c146101b057806323b872dd146101ce575b5f5ffd5b61014c610450565b6040516101599190611ba2565b60405180910390f35b61017c60048036038101906101779190611c53565b6104e0565b6040516101899190611cab565b60405180910390f35b61019a610502565b6040516101a79190611cd3565b60405180910390f35b6101b861050b565b6040516101c59190611cfb565b60405180910390f35b6101e860048036038101906101e39190611d14565b610530565b6040516101f59190611cab565b60405180910390f35b61020661055e565b6040516102139190611d7f565b60405180910390f35b610224610566565b6040516102319190611db0565b60405180910390f35b610254600480360381019061024f9190611c53565b610574565b6040516102619190611cab565b60405180910390f35b610284600480360381019061027f9190611dc9565b61062f565b005b6102a0600480360381019061029b9190611df4565b6106bb565b005b6102bc60048036038101906102b79190611df4565b610774565b6040516102c99190611cd3565b60405180910390f35b6102da6107b9565b005b6102f660048036038101906102f19190611c53565b6107cc565b005b610312600480360381019061030d9190611df4565b6107ec565b60405161031f9190611cd3565b60405180910390f35b6103306107fd565b6040516103439796959493929190611f10565b60405180910390f35b6103546108a2565b6040516103619190611cfb565b60405180910390f35b6103726108ca565b60405161037f9190611ba2565b60405180910390f35b6103a2600480360381019061039d9190611c53565b61095a565b6040516103af9190611cab565b60405180910390f35b6103d260048036038101906103cd9190611d14565b61097c565b6040516103df9190611cab565b60405180910390f35b61040260048036038101906103fd9190611fe6565b610a70565b005b61041e60048036038101906104199190612083565b610bb5565b60405161042b9190611cd3565b60405180910390f35b61044e60048036038101906104499190611df4565b610c37565b005b60606003805461045f906120ee565b80601f016020809104026020016040519081016040528092919081815260200182805461048b906120ee565b80156104d65780601f106104ad576101008083540402835291602001916104d6565b820191905f5260205f20905b8154815290600101906020018083116104b957829003601f168201915b5050505050905090565b5f5f6104ea610cbb565b90506104f7818585610cc2565b600191505092915050565b5f600254905090565b60095f9054906101000a900473ffffffffffffffffffffffffffffffffffffffff1681565b5f5f61053a610cbb565b9050610547858285610cd4565b610552858585610d67565b60019150509392505050565b5f6012905090565b5f61056f610e57565b905090565b5f61057d610f0d565b5f73ffffffffffffffffffffffffffffffffffffffff168373ffffffffffffffffffffffffffffffffffffffff16036105e2576040517f367d1be800000000000000000000000000000000000000000000000000000000815260040160405180910390fd5b5f821161061b576040517ffe7f576600000000000000000000000000000000000000000000000000000000815260040160405180910390fd5b6106258383610f94565b6001905092915050565b5f61063933610774565b90505f8211610674576040517ffe7f576600000000000000000000000000000000000000000000000000000000815260040160405180910390fd5b818110156106ae576040517f4013789400000000000000000000000000000000000000000000000000000000815260040160405180910390fd5b6106b782611013565b5050565b6106c3610f0d565b5f73ffffffffffffffffffffffffffffffffffffffff168173ffffffffffffffffffffffffffffffffffffffff1603610731576040517f08c379a000000000000000000000000000000000000000000000000000000000815260040161072890612168565b60405180910390fd5b8060095f6101000a81548173ffffffffffffffffffffffffffffffffffffffff021916908373ffffffffffffffffffffffffffffffffffffffff16021790555050565b5f5f5f8373ffffffffffffffffffffffffffffffffffffffff1673ffffffffffffffffffffffffffffffffffffffff1681526020019081526020015f20549050919050565b6107c1610f0d565b6107ca5f611027565b565b6107de826107d8610cbb565b83610cd4565b6107e882826110ea565b5050565b5f6107f682611169565b9050919050565b5f6060805f5f5f606061080e6111af565b6108166111ea565b46305f5f1b5f67ffffffffffffffff81111561083557610834612186565b5b6040519080825280602002602001820160405280156108635781602001602082028036833780820191505090505b507f0f00000000000000000000000000000000000000000000000000000000000000959493929190965096509650965096509650965090919293949596565b5f60085f9054906101000a900473ffffffffffffffffffffffffffffffffffffffff16905090565b6060600480546108d9906120ee565b80601f0160208091040260200160405190810160405280929190818152602001828054610905906120ee565b80156109505780601f1061092757610100808354040283529160200191610950565b820191905f5260205f20905b81548152906001019060200180831161093357829003601f168201915b5050505050905090565b5f5f610964610cbb565b9050610971818585610d67565b600191505092915050565b5f610985610f0d565b5f73ffffffffffffffffffffffffffffffffffffffff168473ffffffffffffffffffffffffffffffffffffffff1614806109ea57505f73ffffffffffffffffffffffffffffffffffffffff168373ffffffffffffffffffffffffffffffffffffffff16145b15610a21576040517f367d1be800000000000000000000000000000000000000000000000000000000815260040160405180910390fd5b5f8203610a5a576040517ffe7f576600000000000000000000000000000000000000000000000000000000815260040160405180910390fd5b610a65848484610d67565b600190509392505050565b83421115610ab557836040517f62791302000000000000000000000000000000000000000000000000000000008152600401610aac9190611cd3565b60405180910390fd5b5f7f6e71edae12b1b97f4d1f60370fef10105fa2faae0126114a169c64845d6126c9888888610ae38c611225565b89604051602001610af9969594939291906121b3565b6040516020818303038152906040528051906020012090505f610b1b82611278565b90505f610b2a82878787611291565b90508973ffffffffffffffffffffffffffffffffffffffff168173ffffffffffffffffffffffffffffffffffffffff1614610b9e57808a6040517f4b800e46000000000000000000000000000000000000000000000000000000008152600401610b95929190612212565b60405180910390fd5b610ba98a8a8a610cc2565b50505050505050505050565b5f60015f8473ffffffffffffffffffffffffffffffffffffffff1673ffffffffffffffffffffffffffffffffffffffff1681526020019081526020015f205f8373ffffffffffffffffffffffffffffffffffffffff1673ffffffffffffffffffffffffffffffffffffffff1681526020019081526020015f2054905092915050565b610c3f610f0d565b5f73ffffffffffffffffffffffffffffffffffffffff168173ffffffffffffffffffffffffffffffffffffffff1603610caf575f6040517f1e4fbdf7000000000000000000000000000000000000000000000000000000008152600401610ca69190611cfb565b60405180910390fd5b610cb881611027565b50565b5f33905090565b610ccf83838360016112bf565b505050565b5f610cdf8484610bb5565b90507fffffffffffffffffffffffffffffffffffffffffffffffffffffffffffffffff811015610d615781811015610d52578281836040517ffb8f41b2000000000000000000000000000000000000000000000000000000008152600401610d4993929190612239565b60405180910390fd5b610d6084848484035f6112bf565b5b50505050565b5f73ffffffffffffffffffffffffffffffffffffffff168373ffffffffffffffffffffffffffffffffffffffff1603610dd7575f6040517f96c6fd1e000000000000000000000000000000000000000000000000000000008152600401610dce9190611cfb565b60405180910390fd5b5f73ffffffffffffffffffffffffffffffffffffffff168273ffffffffffffffffffffffffffffffffffffffff1603610e47575f6040517fec442f05000000000000000000000000000000000000000000000000000000008152600401610e3e9190611cfb565b60405180910390fd5b610e5283838361148e565b505050565b5f7f000000000000000000000000000000000000000000000000000000000000000073ffffffffffffffffffffffffffffffffffffffff163073ffffffffffffffffffffffffffffffffffffffff16148015610ed257507f000000000000000000000000000000000000000000000000000000000000000046145b15610eff577f00000000000000000000000000000000000000000000000000000000000000009050610f0a565b610f076116a7565b90505b90565b610f15610cbb565b73ffffffffffffffffffffffffffffffffffffffff16610f336108a2565b73ffffffffffffffffffffffffffffffffffffffff1614610f9257610f56610cbb565b6040517f118cdaa7000000000000000000000000000000000000000000000000000000008152600401610f899190611cfb565b60405180910390fd5b565b5f73ffffffffffffffffffffffffffffffffffffffff168273ffffffffffffffffffffffffffffffffffffffff1603611004575f6040517fec442f05000000000000000000000000000000000000000000000000000000008152600401610ffb9190611cfb565b60405180910390fd5b61100f5f838361148e565b5050565b61102461101e610cbb565b826110ea565b50565b5f60085f9054906101000a900473ffffffffffffffffffffffffffffffffffffffff1690508160085f6101000a81548173ffffffffffffffffffffffffffffffffffffffff021916908373ffffffffffffffffffffffffffffffffffffffff1602179055508173ffffffffffffffffffffffffffffffffffffffff168173ffffffffffffffffffffffffffffffffffffffff167f8be0079c531659141344cd1fd0a4f28419497f9722a3daafe3b4186f6b6457e060405160405180910390a35050565b5f73ffffffffffffffffffffffffffffffffffffffff168273ffffffffffffffffffffffffffffffffffffffff160361115a575f6040517f96c6fd1e0000000000000000000000000000000000000000000000000000000081526004016111519190611cfb565b60405180910390fd5b611165825f8361148e565b5050565b5f60075f8373ffffffffffffffffffffffffffffffffffffffff1673ffffffffffffffffffffffffffffffffffffffff1681526020019081526020015f20549050919050565b60606111e560057f000000000000000000000000000000000000000000000000000000000000000061173c90919063ffffffff16565b905090565b606061122060067f000000000000000000000000000000000000000000000000000000000000000061173c90919063ffffffff16565b905090565b5f60075f8373ffffffffffffffffffffffffffffffffffffffff1673ffffffffffffffffffffffffffffffffffffffff1681526020019081526020015f205f815480929190600101919050559050919050565b5f61128a611284610e57565b836117e9565b9050919050565b5f5f5f5f6112a188888888611829565b9250925092506112b18282611910565b829350505050949350505050565b5f73ffffffffffffffffffffffffffffffffffffffff168473ffffffffffffffffffffffffffffffffffffffff160361132f575f6040517fe602df050000000000000000000000000000000000000000000000000000000081526004016113269190611cfb565b60405180910390fd5b5f73ffffffffffffffffffffffffffffffffffffffff168373ffffffffffffffffffffffffffffffffffffffff160361139f575f6040517f94280d620000000000000000000000000000000000000000000000000000000081526004016113969190611cfb565b60405180910390fd5b8160015f8673ffffffffffffffffffffffffffffffffffffffff1673ffffffffffffffffffffffffffffffffffffffff1681526020019081526020015f205f8573ffffffffffffffffffffffffffffffffffffffff1673ffffffffffffffffffffffffffffffffffffffff1681526020019081526020015f20819055508015611488578273ffffffffffffffffffffffffffffffffffffffff168473ffffffffffffffffffffffffffffffffffffffff167f8c5be1e5ebec7d5bd14f71427d1e84f3dd0314c0f7b2291e5b200ac8c7c3b9258460405161147f9190611cd3565b60405180910390a35b50505050565b5f73ffffffffffffffffffffffffffffffffffffffff168373ffffffffffffffffffffffffffffffffffffffff16036114de578060025f8282546114d2919061229b565b925050819055506115ac565b5f5f5f8573ffffffffffffffffffffffffffffffffffffffff1673ffffffffffffffffffffffffffffffffffffffff1681526020019081526020015f2054905081811015611567578381836040517fe450d38c00000000000000000000000000000000000000000000000000000000815260040161155e93929190612239565b60405180910390fd5b8181035f5f8673ffffffffffffffffffffffffffffffffffffffff1673ffffffffffffffffffffffffffffffffffffffff1681526020019081526020015f2081905550505b5f73ffffffffffffffffffffffffffffffffffffffff168273ffffffffffffffffffffffffffffffffffffffff16036115f3578060025f828254039250508190555061163d565b805f5f8473ffffffffffffffffffffffffffffffffffffffff1673ffffffffffffffffffffffffffffffffffffffff1681526020019081526020015f205f82825401925050819055505b8173ffffffffffffffffffffffffffffffffffffffff168373ffffffffffffffffffffffffffffffffffffffff167fddf252ad1be2c89b69c2b068fc378daa952ba7f163c4a11628f55a4df523b3ef8360405161169a9190611cd3565b60405180910390a3505050565b5f7f8b73c3c69bb8fe3d512ecc4cf759cc79239f7b179b0ffacaa9a75d522b39400f7f00000000000000000000000000000000000000000000000000000000000000007f000000000000000000000000000000000000000000000000000000000000000046306040516020016117219594939291906122ce565b60405160208183030381529060405280519060200120905090565b606060ff5f1b83146117585761175183611a72565b90506117e3565b818054611764906120ee565b80601f0160208091040260200160405190810160405280929190818152602001828054611790906120ee565b80156117db5780601f106117b2576101008083540402835291602001916117db565b820191905f5260205f20905b8154815290600101906020018083116117be57829003601f168201915b505050505090505b92915050565b5f6040517f190100000000000000000000000000000000000000000000000000000000000081528360028201528260228201526042812091505092915050565b5f5f5f7f7fffffffffffffffffffffffffffffff5d576e7357a4501ddfe92f46681b20a0845f1c1115611865575f600385925092509250611906565b5f6001888888886040515f8152602001604052604051611888949392919061231f565b6020604051602081039080840390855afa1580156118a8573d5f5f3e3d5ffd5b5050506020604051035190505f73ffffffffffffffffffffffffffffffffffffffff168173ffffffffffffffffffffffffffffffffffffffff16036118f9575f60015f5f1b93509350935050611906565b805f5f5f1b935093509350505b9450945094915050565b5f600381111561192357611922612362565b5b82600381111561193657611935612362565b5b0315611a6e57600160038111156119505761194f612362565b5b82600381111561196357611962612362565b5b0361199a576040517ff645eedf00000000000000000000000000000000000000000000000000000000815260040160405180910390fd5b600260038111156119ae576119ad612362565b5b8260038111156119c1576119c0612362565b5b03611a0557805f1c6040517ffce698f70000000000000000000000000000000000000000000000000000000081526004016119fc9190611cd3565b60405180910390fd5b600380811115611a1857611a17612362565b5b826003811115611a2b57611a2a612362565b5b03611a6d57806040517fd78bce0c000000000000000000000000000000000000000000000000000000008152600401611a649190611db0565b60405180910390fd5b5b5050565b60605f611a7e83611ae4565b90505f602067ffffffffffffffff811115611a9c57611a9b612186565b5b6040519080825280601f01601f191660200182016040528015611ace5781602001600182028036833780820191505090505b5090508181528360208201528092505050919050565b5f5f60ff835f1c169050601f811115611b29576040517fb3512b0c00000000000000000000000000000000000000000000000000000000815260040160405180910390fd5b80915050919050565b5f81519050919050565b5f82825260208201905092915050565b8281835e5f83830152505050565b5f601f19601f8301169050919050565b5f611b7482611b32565b611b7e8185611b3c565b9350611b8e818560208601611b4c565b611b9781611b5a565b840191505092915050565b5f6020820190508181035f830152611bba8184611b6a565b905092915050565b5f5ffd5b5f73ffffffffffffffffffffffffffffffffffffffff82169050919050565b5f611bef82611bc6565b9050919050565b611bff81611be5565b8114611c09575f5ffd5b50565b5f81359050611c1a81611bf6565b92915050565b5f819050919050565b611c3281611c20565b8114611c3c575f5ffd5b50565b5f81359050611c4d81611c29565b92915050565b5f5f60408385031215611c6957611c68611bc2565b5b5f611c7685828601611c0c565b9250506020611c8785828601611c3f565b9150509250929050565b5f8115159050919050565b611ca581611c91565b82525050565b5f602082019050611cbe5f830184611c9c565b92915050565b611ccd81611c20565b82525050565b5f602082019050611ce65f830184611cc4565b92915050565b611cf581611be5565b82525050565b5f602082019050611d0e5f830184611cec565b92915050565b5f5f5f60608486031215611d2b57611d2a611bc2565b5b5f611d3886828701611c0c565b9350506020611d4986828701611c0c565b9250506040611d5a86828701611c3f565b9150509250925092565b5f60ff82169050919050565b611d7981611d64565b82525050565b5f602082019050611d925f830184611d70565b92915050565b5f819050919050565b611daa81611d98565b82525050565b5f602082019050611dc35f830184611da1565b92915050565b5f60208284031215611dde57611ddd611bc2565b5b5f611deb84828501611c3f565b91505092915050565b5f60208284031215611e0957611e08611bc2565b5b5f611e1684828501611c0c565b91505092915050565b5f7fff0000000000000000000000000000000000000000000000000000000000000082169050919050565b611e5381611e1f565b82525050565b5f81519050919050565b5f82825260208201905092915050565b5f819050602082019050919050565b611e8b81611c20565b82525050565b5f611e9c8383611e82565b60208301905092915050565b5f602082019050919050565b5f611ebe82611e59565b611ec88185611e63565b9350611ed383611e73565b805f5b83811015611f03578151611eea8882611e91565b9750611ef583611ea8565b925050600181019050611ed6565b5085935050505092915050565b5f60e082019050611f235f83018a611e4a565b8181036020830152611f358189611b6a565b90508181036040830152611f498188611b6a565b9050611f586060830187611cc4565b611f656080830186611cec565b611f7260a0830185611da1565b81810360c0830152611f848184611eb4565b905098975050505050505050565b611f9b81611d64565b8114611fa5575f5ffd5b50565b5f81359050611fb681611f92565b92915050565b611fc581611d98565b8114611fcf575f5ffd5b50565b5f81359050611fe081611fbc565b92915050565b5f5f5f5f5f5f5f60e0888a03121561200157612000611bc2565b5b5f61200e8a828b01611c0c565b975050602061201f8a828b01611c0c565b96505060406120308a828b01611c3f565b95505060606120418a828b01611c3f565b94505060806120528a828b01611fa8565b93505060a06120638a828b01611fd2565b92505060c06120748a828b01611fd2565b91505092959891949750929550565b5f5f6040838503121561209957612098611bc2565b5b5f6120a685828601611c0c565b92505060206120b785828601611c0c565b9150509250929050565b7f4e487b71000000000000000000000000000000000000000000000000000000005f52602260045260245ffd5b5f600282049050600182168061210557607f821691505b602082108103612118576121176120c1565b5b50919050565b7f496e76616c6964206164647265737300000000000000000000000000000000005f82015250565b5f612152600f83611b3c565b915061215d8261211e565b602082019050919050565b5f6020820190508181035f83015261217f81612146565b9050919050565b7f4e487b71000000000000000000000000000000000000000000000000000000005f52604160045260245ffd5b5f60c0820190506121c65f830189611da1565b6121d36020830188611cec565b6121e06040830187611cec565b6121ed6060830186611cc4565b6121fa6080830185611cc4565b61220760a0830184611cc4565b979650505050505050565b5f6040820190506122255f830185611cec565b6122326020830184611cec565b9392505050565b5f60608201905061224c5f830186611cec565b6122596020830185611cc4565b6122666040830184611cc4565b949350505050565b7f4e487b71000000000000000000000000000000000000000000000000000000005f52601160045260245ffd5b5f6122a582611c20565b91506122b083611c20565b92508282019050808211156122c8576122c761226e565b5b92915050565b5f60a0820190506122e15f830188611da1565b6122ee6020830187611da1565b6122fb6040830186611da1565b6123086060830185611cc4565b6123156080830184611cec565b9695505050505050565b5f6080820190506123325f830187611da1565b61233f6020830186611d70565b61234c6040830185611da1565b6123596060830184611da1565b95945050505050565b7f4e487b71000000000000000000000000000000000000000000000000000000005f52602160045260245ffdfea264697066735822122099f72cade25360d90bae318d6f880a7fdce22e60a1783d28dfdced8299bac4c864736f6c634300081c0033","linkReferences":{}},"methodIdentifiers":{"DOMAIN_SEPARATOR()":"3644e515","allowance(address,address)":"dd62ed3e","approve(address,uint256)":"095ea7b3","balanceOf(address)":"70a08231","burn(uint256)":"42966c68","burnFrom(address,uint256)":"79cc6790","decimals()":"313ce567","eip712Domain()":"84b0196e","mint(address,uint256)":"40c10f19","name()":"06fdde03","nonces(address)":"7ecebe00","owner()":"8da5cb5b","permit(address,address,uint256,uint256,uint8,bytes32,bytes32)":"d505accf","qpgEngineAddress()":"19c7899c","renounceOwnership()":"715018a6","setEngineAddress(address)":"615bc513","symbol()":"95d89b41","totalSupply()":"18160ddd","transfer(address,address,uint256)":"beabacc8","transfer(address,uint256)":"a9059cbb","transferFrom(address,address,uint256)":"23b872dd","transferOwnership(address)":"f2fde38b"},"id":44}